S01700004763634170706C69636174696F6E312E737265635B
S11300000C942A000C9434000C9434000C943400A6
S11300100C9434000C9434000C9434000C9434008C
S11300200C9434000C9434000C9434000C9434007C
S11300300C9434000C9434000C9434000C9434006C
S11300400C9434000C9434000C9434000C9434005C
S11300500C94340011241FBECFE5D8E0DEBFCDBF21
S11300600E9441000C9451000C94000084E085BB74
S1130070089584E085BB089595B384E0892785BB02
S113008008950E9436000E9439000E943C002FE32C
S11300908DE093E0215080409040E1F700C00000E3
S10900A0F4CFF894FFCF39
S9030000FC
